:100000000C9457000C947F000C947F000C947F009C
:100010000C947F000C947F000C947F000C947F0064
:100020000C947F000C94480B0C947F000C947F0080
:100030000C947F000C9483070C947F000C947F0039
:100040000C947F000C947F000C947F000C947F0034
:100050000C947F000C947F000C947F000C947F0024
:100060000C947F000C947F00000000000000001F33
:100070001F1F1F1F1F1F4C31362063646567726589
:100080006734003E6733323E3E63333200736F6C39
:10009000766572004D617A650033F720526F626FAA
:1000A000740020506F6C6F6C7500290C2A0C1124A1
:1000B0001FBECFEFD8E0DEBFCDBF11E0A0E0B1E0C2
:1000C000E2EEF6E202C005900D92A835B107D9F72D
:1000D00022E0A8E5B1E001C01D92A433B207E1F728
:1000E00010E0CCEAD0E004C02297FE010E941C126E
:1000F000CA3AD107C9F70E9449020C9464130C94C0
:10010000000060E088E690E00E94C80861E089E6AF
:1001100090E00E94C80862E08AE690E00E94C80869
:1001200063E08BE690E00E94C80864E08CE690E013
:100130000E94C80865E08DE690E00E94C80866E06D
:100140008EE690E00E94C8080C944809CF92DF9296
:10015000EF92FF920F931F93CF93DF93CDB7DEB74C
:100160002A970FB6F894DEBF0FBECDBF8C0185E095
:10017000D82E9AE0C92E25E6E22EF12CE1E3F1E03B
:10018000DE0111968C2D01900D928A95E1F7F80110
:10019000819191918F01B7010E94721181E090E0ED
:1001A0008C0F9D1F680F791FFB0180810E94CB0877
:1001B000DA9421F72A960FB6F894DEBF0FBECDBFB2
:1001C000DF91CF911F910F91FF90EF90DF90CF9033
:1001D00008952F923F924F925F926F927F928F92EB
:1001E0009F92AF92BF92CF92DF92EF92FF920F93C6
:1001F0001F93CF93DF93CDB7DEB72A970FB6F8944E
:10020000DEBF0FBECDBFC12CD12C7601A12CB12CED
:1002100050E1452E57E2552E612C712C64E1262EBB
:10022000312C7CE3872E912C61E0CE0101960E9457
:10023000EA0B8C01005D1740C801AA2797FDA09525
:10024000BA2FC80ED91EEA1EFB1EC701B601A301B4
:1002500092010E94BC11C8018A199B09FC01EE0F92
:10026000FF1FE80FF91FF7FD3196F595E795E20FAF
:10027000F31FC801B1010E948611E60FF71FED338D
:10028000F10574F4E43C8FEFF8071CF0F7FD03C0B0
:1002900009C0E4ECFFEF6CE370E0CF01CC9607C03F
:1002A000ECE3F0E0B4016E1B7F0B8CE390E00E9466
:1002B000FA0A8B819C818436910550F48D819E8150
:1002C0008436910528F48F8198858436910560F0F5
:1002D00089819A81893C910538F489859A85893C80
:1002E000910510F45801A0CF2A960FB6F894DEBFFE
:1002F0000FBECDBFDF91CF911F910F91FF90EF9077
:10030000DF90CF90BF90AF909F908F907F906F9035
:100310005F904F903F902F9008950F931F93CF932E
:10032000DF93CDB7DEB72A970FB6F894DEBF0FBEC6
:10033000CDBF80ED97E00E94250C0E94810082EAEB
:1003400090E00E94700961E080E00E94F00989E974
:1003500090E00E94700983E890E00E94050888EE12
:1003600093E00E94900B0E94480984E990E00E946B
:10037000700961E080E00E94F0098DE890E00E9441
:10038000700988EE93E01AC00E94B3048C010E94A9
:100390004809B801882777FD8095982F0E94CD09DC
:1003A0008BE391E00E945F0961E080E00E94F00928
:1003B0008EE391E00E945F0984E690E00E94900B3A
:1003C00080E10E943D0B8823F9F280E10E94290B15
:1003D00088EE93E00E94900B0CEE1FEF083211059F
:1003E00028F068ED7FEF88E290E004C068E270E0FA
:1003F00088ED9FEF0E94FA0A81E00E94E40B84E1FD
:1004000090E00E94900B0F5F1F4F0C33110531F7E6
:1004100060E070E080E090E00E94FA0A19C061E0BC
:10042000CE0101960E94EA0B8C010E944809B80196
:1004300080E090E00E94CD0961E080E00E94F00938
:10044000CE0101960E94A60084E690E00E94900BE7
:1004500080E10E943D0B882311F380E10E94290B6B
:100460000E94480986E491E00E945F0986E790E0D7
:100470000E9405080E94E4078111FCCF2A960FB65E
:10048000F894DEBF0FBECDBFDF91CF911F910F91CA
:1004900008950E948D010E94CC02FFCFE091CB0114
:1004A000F0E0E453FE4F10820E9448098CEC91E08A
:1004B0000E945F098091CB01893040F061E080E0CB
:1004C0000E94F00984ED91E00C945F090895811178
:1004D00006C0611106C0442331F082E508958CE422
:1004E000089583E5089582E40895CF93C091CB01E8
:1004F000C33008F44FC02C2F30E0B90164537E4F55
:10050000FB0132978081823409F044C043E050E01F
:1005100080E090E0FB01E40FF51F3497E081EC34BC
:1005200041F0E23519F0E23449F406C0865A9F4F93
:1005300005C0825F9E4F02C08C549F4F41505109AD
:1005400049F768E671E00E9486118A35910581F0CD
:100550001CF4892B41F01BC0843B910571F08E3057
:100560009140A9F40FC0F901E753FE4F83E50EC097
:10057000F901E753FE4F82E509C0F901E753FE4F49
:1005800082E404C0F901E753FE4F8CE48083C2503B
:10059000C093CB01CF910895CF93DF93CDB7DEB752
:1005A0002B970FB6F894DEBF0FBECDBF0E94E900B7
:1005B00062E370E082E390E00E94FA0A82E390E056
:1005C0000E94900B61E0CE0101960E94EA0B11E0BF
:1005D00029813A812536310508F410E041E029856A
:1005E0003A852536310508F440E068E270E088E29B
:1005F00090E04B870E94FA0A88EC90E00E94900BF2
:1006000061E0CE0101960E94EA0B2B813C814B8573
:10061000293C310560F42D813E81293C3105A0F44F
:100620002F813885293C310578F460E00EC02935EA
:10063000324050F02D813E812935324028F02F8103
:10064000388529353240B0F461E0812F0E9467027D
:10065000182F0E94A3038091CB01E82FF0E0E45310
:10066000FE4F10838F5F8093CB010E9475020E9422
:100670004E029CCF80EDC82E87E0D82EE12CF12CC5
:1006800060E070E080E090E00E94FA0A8AE491E085
:100690000E94F40720C00E94CA0BA70196010E9485
:1006A0009A11683E73408105910578F40E944809CB
:1006B00080E591E00E945F0961E080E00E94F0091E
:1006C0008EE391E00E945F0902C00E944E028EE11B
:1006D00090E00E94900B80E10E943D0B8823D9F2AC
:1006E00080E10E943D0B8111FBCF88EE93E00E94D8
:1006F000900B0CEC11E01BC00E94E90062E370E07B
:1007000082E390E00E94FA0A82E390E00E94900B5C
:1007100068E270E088E290E00E94FA0A88EC90E0DB
:100720000E94900BF80181918F010E94A303980110
:100730002C5C31408091CB0190E028173907E4F21E
:100740000E94E9009DCF8C3429F0823541F082343B
:10075000C9F40EC060E570E080EB9FEF04C060EB71
:100760007FEF80E590E00E94FA0A88EC90E008C0F4
:1007700060EB7FEF80E590E00E94FA0A80E991E06B
:100780000C94900B0895882321F480917C008F7D38
:1007900003C080917C00806280937C0008958091EA
:1007A0007C0090E025E0959587952A95E1F781708A
:1007B000089580917A0090E036E0959587953A9576
:1007C000E1F7817008950E94CF03882321F02091E2
:1007D000790030E004C02091780030917900C9019F
:1007E00008958032B0F497E890937A0090917C005D
:1007F000292F2064662311F0906C02C0922F9F77FE
:10080000907E982B90937C0080917A0080648093F6
:100810007A000895A0E0B0E0E0E1F4E00C94ED117E
:100820006B0160E00E94F1030E94D9038823E1F785
:10083000E601EE24FF24870180917A008064809392
:100840007A000E94D9038823E1F70E94E303A0E025
:10085000B0E0E80EF91E0A1F1B1F219769F7C601B9
:100860009695879520E4C216D10440F48E0D9F1D05
:100870006C2D70E00E947211CB010DC0BC0180E0B4
:1008800090E06E0D7F1D801F911F960140E050E0AB
:100890000E949A11C901CDB7DEB7E8E00C940912A5
:1008A000A3E0B0E0E6E5F4E00C94F211BC0180E0D6
:1008B00090E0209100013091010140E050E00E9461
:1008C0005611182F69837A839B830E94CF03698115
:1008D0007A819B81882371F09B01412F592FCA0196
:1008E000B90161587F4F8F4F9F4F2FEF30E040E0AD
:1008F00050E00DC09B01412F592FCA01B901615031
:100900007E4F8F4F9F4F2FEF33E040E050E00E942B
:100910009A11C9012396E3E00C940E120E940A0476
:100920000E94500408951F93CF93DF930E94CF033A
:10093000182F80E00E94C30386E06AE070E00E9406
:100940008E04EC01812F0E94C3039E01220F331FEE
:100950002C0F3D1F2F5F3F4F36952795C901DF9123
:10096000CF911F9108950E949304089590915D0185
:10097000E0915901F0915A01992311F0849101C03D
:100980008081282F21542A3110F4805E089580320E
:1009900071F42091590130915A01A9014F5F5F4FC5
:1009A00050935A01409359012115310509F70895D3
:1009B000EF92FF92CF93DF930E94B604C0E0D0E0A5
:1009C0001BC09E01220F331F93E0CC0FDD1F9A95B1
:1009D000E1F7C20FD31F992787FD9095C80FD91F44
:1009E000E0978091590190915A01019690935A0194
:1009F000809359010E94B604982F90539A3008F3BF
:100A0000CE01DF91CF91FF90EF90089510926F008B
:100A100083E28093800081E18093810010928200C4
:100A200080E197E2909389008093880010928B0078
:100A300010928A00229A7894089580915801882310
:100A400029F481E0809358010E9406050895A0E0F2
:100A5000B0E0EDE2F5E00C94E9118C015B01E42ECD
:100A60000E941D051092020117FF04C01F77AAE023
:100A7000FA2E02C0FF24F394C0908100DD2428EFF9
:100A8000C222DD2488EC3F2D389FC001112480173D
:100A90009107D8F4E80167E20131160710F0C0E1D0
:100AA000D7E2BE017695679580E090E06058794680
:100AB00087469F4F9E0140E050E00E949A118901B5
:100AC00081E090E0C82AD92A2CC098E2F99E902DA6
:100AD000112480E0892EE4014E01982EE401801655
:100AE000910608F4E801BE01769567959E0140E005
:100AF00050E08F2D8A3039F480E090E0605E7344DE
:100B000081449F4F06C080E090E060537D4E8C4E44
:100B10009F4F0E949A11890152E0852E912CC8287E
:100B2000D9282F2D2A3039F4CE0105966AE070E0DD
:100B30000E947211EB0133E0C83ED30779F0BE0189
:100B400080E090E0950140E050E00E94561128EED0
:100B500033E040E050E00E94BC1101C095011092CA
:100B60006F00C0928100109389000093880040912B
:100B70008800509189006E2D603108F06FE080E1AF
:100B800090E0861B9109BA0102C0769567958A9517
:100B9000E2F770938B0060938A003093600120939A
:100BA0005F0186B38FEF86BB81E080936F00CDB786
:100BB000DEB7ECE00C9405129B018F3F11F044234B
:100BC00029F488EE93E0B90140E049C0813130F06A
:100BD000582F5051503618F05FE501C050E0852F76
:100BE0006CE00E946611A82FB0E0E4EFFFEFAE9F2B
:100BF000B001AF9F700DBE9F700D1124650F711D68
:100C00006C30710540F4FB01EE0FFF1FE45FFE4FF7
:100C10006081718102C060E070E0873081F0082E51
:100C200002C0660F771F0A94E2F7823028F0CB01EA
:100C300005966AE070E00CC0605070480BC0CB01B4
:100C4000B6E0880F991FBA95E1F7029665E070E06B
:100C50000E947211403108F04FE0CB01B9010E94AF
:100C600027050895A0E0B0E0E8E3F6E00C94E81171
:100C7000B090030180915B01882361F060915C0179
:100C8000662341F08FEF70E040E00E94DC05109297
:100C90005C0134C1C0ECDDE5AA24A39414E0712EFC
:100CA00000ED17E0B4E0EB2EF12CA4EFCA2EA1E08A
:100CB000DA2EFFE08F2E912C0E94B604209159016C
:100CC00030915A012F5F3F4F30935A0120935901C1
:100CD0008636F1F18736CCF4823609F4AFC083361C
:100CE0007CF48E3349F18F333CF4813209F487C0B0
:100CF0008C3309F09BC022C0813609F097C09BC09D
:100D0000843601F185360CF51BC08F3609F447C0D7
:100D1000803744F48C3611F18D3661F1873609F055
:100D200085C019C0843709F444C0863709F460C00F
:100D3000823709F07BC039C0B394BECFBA94BCCF20
:100D4000EE2435C0EE2482E07BC0EE2484E078C03F
:100D5000EE2485E075C0EE2487E072C00E94D804BE
:100D6000BC0190930501809304018091060190914C
:100D7000070137C00E94B6048C3619F410925B014B
:100D800004C0A0925B0110925C0180915901909186
:100D90005A01019690935A01809359018DCF0E9478
:100DA000D804B82E8093030187CFEE24E39480E02B
:100DB00047C00E94D804BC01CE010E947211CB0131
:100DC000880F991F53E0660F771F5A95E1F7860F3A
:100DD000971F909307018093060160910401709121
:100DE00005010E947211709309016093080164CF9C
:100DF0000E94D80490930B0180930A015DCF7092FA
:100E000003011093070100930601F0920501E0929F
:100E10000401D0920901C092080190920B018092C6
:100E20000A0110925B0144E0B42E46CF10925A01A1
:100E30001092590163C0EE2489E002C0EE248BE0D9
:100E40009CE0B99EB02C1124B80E0E94B6048B32DF
:100E500011F08332B9F48091590190915A010196B1
:100E600090935A0180935901B394EFCF8091590127
:100E700090915A01019690935A0180935901BA9426
:100E80000E94B6048D3291F3C0910801D0910901FE
:100E90008153883058F4C0910601D09107010E9417
:100EA000D804BC01CE010E947211EB018E010BC06F
:100EB0008091590190915A01019690935A01809323
:100EC0005901C00FD11F169507950E94B6048E32A6
:100ED00079F380915B01882339F0CE01969587954F
:100EE00080935C01C81BD109EE2011F0BB24BA9499
:100EF0008B2DBE0140910A010E94DC05CDB7DEB703
:100F0000EDE00C9404121F920F920FB60F92112471
:100F10002F933F934F935F936F937F938F939F9301
:100F2000AF93BF93EF93FF9380915F019091600126
:100F30009C01215030403093600120935F01009765
:100F400011F510926F00789480918100887F816004
:100F50008093810080E197E29093890080938800DC
:100F600010928B0010928A0081E0809302018091A0
:100F7000590190915A01009731F080915E018823C8
:100F800011F40E943206FF91EF91BF91AF919F91B2
:100F90008F917F916F915F914F913F912F910F9022
:100FA0000FBE0F901F90189580910201882351F079
:100FB00081E02091590130915A012115310519F430
:100FC00080E0089581E008950E94D407089510926A
:100FD0006F0090935A018093590110925D01109215
:100FE0005C010E94320608950E94E707089510925E
:100FF0006F0090935A018093590181E080935D01C5
:1010000010925C010E94320608950E94F70708952D
:1010100081E090E06F9364E06A95F1F76F9101973A
:10102000C9F708950F931F93CF93DF931AB1579881
:101030005A98289AC0E0D0E00E9408085C9A0E9462
:10104000080809B15C980E9408085C9A0E94080888
:101050005C9807FF11C024969E0140E050E080910B
:10106000650190916601A0916701B0916801281710
:1010700039074A075B0700F31AB9DF91CF911F9137
:101080000F91089565B190E0AC0141705070440F2C
:10109000551F9C012670307053E0220F331F5A9564
:1010A000E1F7242B6D7C262B25B92BB1887090702D
:1010B00034E0880F991F3A95E1F72F77282B2BB949
:1010C0005C9A0E9408085C980E9408080895A2E0B3
:1010D000B0E0EDE6F8E00C94EE11182F4A83698336
:1010E0000E9412090E941208F4B005B1DAB0EBB008
:1010F000289869814A81662311F05A9A01C05A984A
:1011000084B1826384B9579A413029F0812F829546
:101110008F700E944208812F8F700E944208DAB8B7
:10112000EBB8F4B805B92296E7E00C940A1260E037
:1011300042E00E946708089561E042E00E9467086B
:101140000895EF92FF921F93DF93CF930F92CDB745
:10115000DEB7660F660F660F482F592F7A0110E031
:10116000812F860F806469830E949708F70184911C
:101170000E949C081F5F0894E11CF11C69811830D3
:1011800079F70F90CF91DF911F91FF90EF90089525
:101190000E94A10808950E949C08089560E041E023
:1011A0000E946708089580E197E2A0E0B0E0809394
:1011B000650190936601A0936701B0936801529A0C
:1011C000209A549A8EE190E00E94900B83E00E9456
:1011D000CE0886E090E00E94900B83E00E94CE084B
:1011E00082E090E00E94900B83E00E94CE0882E0B3
:1011F00090E00E94900B82E00E94CE0882E090E096
:101200000E94900B88E20E94970888E00E9497084D
:1012100081E00E94970886E00E9497088CE00E9477
:101220009708089580916901882329F481E08093CB
:1012300069010E94D308089581E00E949708809177
:10124000610190916201009711F1A0E0B0E208C045
:10125000E0916101F0916201E20FF31FB083AF5F93
:101260002A2F30E08091240190E0019760912501C0
:1012700070E0869FA001879F500D969F500D11240E
:10128000241735072CF3109264011092630108951E
:101290000E941C090895EF92FF92CF93DF93E82EEE
:1012A000E7017E01F92EE70102C00E949C088991A6
:1012B0008823D9F7DF91CF91FF90EF9008950E9496
:1012C0004B090895CF93DF93EC0103C00E949C0863
:1012D0002196FE0184918823C9F7DF91CF9108956B
:1012E0000E9462090895AAE0B0E0E9E7F9E00C94F1
:1012F000EB119B01AC011AE0EAE0CE2ED12CE12CDF
:10130000F12C5E010894A11CB11C022FCA01B90185
:10131000A70196010E949A111150F501E10FF11DEC
:10132000005D922F990F892F880F880F890F081B56
:101330000083211531054105510539F708C0F60133
:10134000E10FF11D80810E949C081F5F04C06E01A7
:101350000894C11CD11C1A3090F32A96EAE00C9430
:101360000712EF92FF920F931F937B018C0197FF5F
:101370000BC010950095F094E094E11CF11C011D48
:10138000111D8DE20E949C08C801B7010E947309DB
:101390001F910F91FF90EF9008950E94B109089559
:1013A000A5E0B0E0E6EDF9E00C94F211182F80E82A
:1013B000898380EC8A8384E98B8384ED8C83FE01AE
:1013C000E60FF11D8181810F6D830E9497081093B4
:1013D00064016D81609363012596E3E00C940E1225
:1013E0000E94D0090895FC0111821082138212829A
:1013F000158214821682683068F489E290E0918345
:1014000080838BE290E0938382838AE290E09583ED
:10141000848311C06E30C0F483E290E091838083B6
:1014200085E290E09383828384E290E095838483D5
:1014300070E06850704081E090E002C0880F991F12
:101440006A95E2F7868308956531B8F486E290E004
:101450009183808388E290E09383828387E290E0A7
:101460009583848370E06E50704081E090E002C00C
:10147000880F991F6A95E2F786830895FC01A4817D
:10148000B5818681662321F09C91982B9C930895C9
:101490009C91809589238C930895FC016F3F31F4D2
:1014A000A281B3818C91968189270CC0A281B381DE
:1014B0008681662321F09C91982B9C9308959C91A2
:1014C000809589238C930895A7E0B0E0EAE6FAE0DE
:1014D0000C94F011282FF62E8E010F5F1F4FC801BC
:1014E000622F0E94F309C8016F2D0E944D0AC801A6
:1014F00061E00E943E0A2796E5E00C940C12E0EBB6
:10150000F0E083EF8083808184BDE1EBF0E082E056
:101510008083808185BDE4EBF0E010828081E3EB85
:10152000F0E08083808188BD88B587BD86E060E07B
:101530000E94640A85E060E00E94640A8BE060E03B
:101540000E94640A83E060E00E94640A089580912A
:101550006A01882329F481E080936A010E947F0A4E
:101560000895CF93DF93EC010E94A70AD7FF05C02F
:10157000D095C195DF4F81E001C080E0CF3FD1051C
:1015800019F014F0CFEFD0E0882319F018BCC7BDD4
:1015900002C0C8BD17BCDF91CF910895CF93DF93F0
:1015A000EC010E94A70AD7FF05C0D095C195DF4F77
:1015B00081E001C080E0CF3FD10519F014F0CFEFFA
:1015C000D0E0882329F01092B400C093B30004C087
:1015D000C093B4001092B300DF91CF910895CF93E0
:1015E000DF93EB010E94B10ACE010E94CE0ADF9187
:1015F000CF9108950E94EF0A089584B18D7C84B93B
:1016000085B1826385B985E090E06F9364E06A9567
:10161000F1F76F910197C9F7089580916B018823C5
:1016200029F481E080936B010E94FD0A08951F93C5
:10163000182F0E940D0B83B18123E9F38AE090E01B
:101640000E94900B83B18123B1F383B181231F9159
:1016500008950E94170B0895A1E0B0E0E2E3FBE0DB
:101660000C94F31189830E940D0B93B1909589819D
:1016700089232196E2E00C940F120E942C0B08950E
:101680006F9364E06A95F1F76F910197C9F7089538
:101690002F928F939F932FB68091790190917A0129
:1016A00001968093790190937A0190E080917B017B
:1016B000891F80937B01909181019C5F90938101B0
:1016C0008091800180519742C0F090938101809376
:1016D000800180917C0190917D01019680937C0135
:1016E00090937D0190E080917E01891F80937E011F
:1016F00080917F01891F80937F012FBE9F918F91E1
:101700002F901895CF93DF93EC0105C088EE93E0FE
:101710000E94400B21972097C9F7DF91CF91089540
:101720000E94820B0895E0E7F0E080818E7F808345
:10173000A0EBB0E08C9183608C93A1EBB0E08C9136
:10174000807F8C938C9182608C93B89A8081816029
:1017500080837894089580918201882329F481E020
:10176000809382010E94930B08950E94AB0BE0E7E7
:10177000F0E080818E7F808320917C0130917D011B
:1017800040917E0150917F01808181608083B90109
:10179000CA0108950E94B50B08950E94AB0BE0E7C3
:1017A000F0E080818E7F808310927C0110927D0119
:1017B00010927E0110927F0110928101109280019F
:1017C0008081816080830895682F83E891E00E9482
:1017D000141108959C01462F83E891E0B90120E09F
:1017E0000E94720F08950F93DF93CF9300D000D023
:1017F0000F92CDB7DEB79C01962FDE011196E6E27F
:10180000F1E085E001900D928150E1F7BE016F5F3C
:101810007F4F992329F083E891E045E00FEF04C062
:1018200083E891E045E003E10E948D0C83E891E0BC
:101830000E94640C0E94CD0B0F900F900F900F90A0
:101840000F90CF91DF910F91089560E00E94F30B0C
:101850000895089583E891E00E94381108956F93E8
:1018600064E06A95F1F76F910197C9F70895A7E0D1
:10187000B0E0EDE3FCE00C94F1118C01FC0111826D
:1018800010821382128215821482178216826131AD
:1018900018F080E1808702C0FC016087F801208B8E
:1018A000CE010196642F0E94F3098F81F801818790
:1018B0008B819C81938782878D819E819587848788
:1018C0002796E4E00C940D12FC01A485B5851097D1
:1018D00079F08C919185892B8C93A285B3859C910D
:1018E0008185809589238C9388EC90E00E942F0C51
:1018F0000895FC01A485B585109771F08C919185B0
:10190000892B8C93A285B3858C919185892B8C939F
:1019100088EC90E00E942F0C0895A7E0B0E0E3E986
:10192000FCE00C94E3117C011B01642F3901402F72
:1019300020E00E94370C97012F5B3F4FF901108286
:10194000D701AE5BBF4F1C92C7018D5B9F4FFC015F
:101950001082F7017786668666242E010894411C62
:10196000511C6C015D01490129C0062D10E0F101F7
:10197000E00FF11FC20160810E94F3092F81F7017E
:10198000E00FF11F218B89819A81F801EE0FFF1F73
:10199000EE0DFF1D92A381A38332910511F4F40192
:1019A00009C08632910511F4F50104C08932910510
:1019B00021F4F6018081822B80836394F701808576
:1019C000681698F22796E2E10C94FF11A0E0B0E0CF
:1019D000ECEEFCE00C94E811EC015B01FC01EF5B28
:1019E000FF4F9080FC01EE5BFF4F8080FC01ED5BC0
:1019F000FF4F708080E009C0E82FF0E0EE0FFF1F7E
:101A0000EA0DFB1D118210828F5F98858917A0F364
:101A100084B121E4E22EF12CEC0EFD1ED7019C9145
:101A2000892B84B987B18E010E5B1F4FF80190811D
:101A3000892B87B98AB193E4C92ED12CCC0EDD1E37
:101A4000D6019C91892B8AB985B1F7019081892BA8
:101A500085B988B1D8019C91892B88B98BB1F601E1
:101A60009081892B8BB98AE090E00E942F0C94B171
:101A7000D7018C918095892384B997B1F801808131
:101A80008095892387B99AB1D6018C918095892355
:101A90008AB995B1F70180818095892385B998B17C
:101AA000D8018C918095892388B99BB1F6018081FA
:101AB000809589238BB9C090B000E090B1008091EF
:101AC000B00083608093B00082E08093B100009109
:101AD000B20080E090E039C02091B200201B820F5C
:101AE000911D020FF3B0F91409F04DC096B098148F
:101AF00009F049C029B1271509F045C024C0212F9C
:101B000030E0A901440F551FF501E40FF51F608176
:101B100071816115710599F44C0F5D1FDA01919681
:101B20004D915C919297DA014C912C0F3D1FD90198
:101B300051962C915197422311F4918380831F5F1A
:101B400028851217E0F2892C9F2C2E853F8582175D
:101B5000930710F2C092B000E092B10020E00FC0F5
:101B6000E22FF0E0EE0FFF1FEA0DFB1D8081918157
:101B7000009721F48E859F85918380832F5F8885D0
:101B8000281770F305C0F3B096B079B010E0D8CF45
:101B9000CDB7DEB7EDE00C940412EF92FF920F93F5
:101BA0001F93CF93DF93FC019B0100917C00109168
:101BB0007A00E7B0F8B080917A0086FDFCCF80E033
:101BC0000AC0A82FB0E0AA0FBB1FA20FB31F119627
:101BD0001C921E928F5F9085891798F397B182A10E
:101BE0008095892387B998B182A18095892388B986
:101BF00087E880937A0070E029C0DF01A60FB11D4D
:101C000051968C915197806480937C0080917A00EA
:101C1000806480937A0080917A0086FDFCCFA62FA5
:101C2000B0E0AA0FBB1FA20FB31F409178005091E4
:101C300079008D919C911197840F951F11969C931B
:101C40008E936F5F80856817C0F27F5F81A17817E0
:101C500010F460E0F7CF40E014C0C42FD0E0CC0F08
:101C6000DD1FC20FD31F61A170E0CB019595879551
:101C7000A881B9818A0F9B1F0E94721179836883A2
:101C80004F5F8085481748F300937C0010937A00DB
:101C9000F8B8E7B8CDB7DEB7E6E00C940B12A0E2D7
:101CA000B0E0E5E5FEE00C94EE118C017B01D42E52
:101CB000842F8150823018F4C8010E94790CD80119
:101CC00050968C915097882389F4C801B7010E94DF
:101CD000E60CC8010E94640CBD2DB230D9F5C801D4
:101CE000BE016F5F7F4F0E94E60C10C0C801B701B4
:101CF0000E94CD0DC8010E94640CED2DE23051F51B
:101D0000C801BE016F5F7F4F0E94CD0D60E0AE0144
:101D10004F5F5F4F1BC0862F90E0880F991FF70120
:101D2000E80FF91F840F951FD8011E962D913C9145
:101D30001F97DC018D919C911197281B390B808195
:101D40009181820F931F918380836F5FF80180855B
:101D5000681708F3A096E7E00C940A128F929F92FE
:101D6000AF92BF92CF92DF92FF920F931F93CF93C8
:101D7000DF93EC01C62E072FF42E423011F0FF2026
:101D800051F48C819D81009709F4A0C08E819F81C0
:101D9000009709F49BC08F2D8150823050F48881C8
:101DA0009981009709F492C08A819B81009709F478
:101DB0008DC0CE016C2D702F4F2D0E944F0EAC2C7C
:101DC000B02E00E010E0882499247AC08F2D813055
:101DD00059F4EA81FB81E00FF11FC080D180E881D6
:101DE000F981E00FF11F0DC08C819D81FF2061F40E
:101DF000EE81FF81E00FF11FC080D180800F911F25
:101E0000FC01408151812BC0800F911FFC0180811A
:101E10009181E881F981E00FF11F40815181CE84E9
:101E2000DF848417950710F4A60104C04C0D5D1DD6
:101E3000481B590BEE81FF81E00FF11F80819181DA
:101E4000EA81FB81E00FF11F20813181CE84DF84A4
:101E50008217930720F0C20ED31EC81AD90AC41ADB
:101E6000D50AD1F0F5016081718180E090E09A019E
:101E700040E050E0621B730B840B950B28EE33E0BF
:101E800040E050E00E945611960140E050E00E9470
:101E9000BC1137FD0AC002C020E030E0F3E0293E6B
:101EA0003F072CF028EE33E002C020E030E0F501DF
:101EB000219331935F010894811C911C0E5F1F4F89
:101EC000888590E0881699060CF480CFDF91CF9139
:101ED0001F910F91FF90DF90CF90BF90AF909F9098
:101EE0008F900895A5E0B0E0E8E7FFE00C94E311DF
:101EF0004C01C62EE72E2D830E94AE0ED4011896FB
:101F00004C901897DE2C642D70E080E090E028EE75
:101F100033E040E050E00E94561169837A838B835E
:101F20009C83EE24FF248701662477248824992447
:101F30005401552436C0F6013081218142E0242E1F
:101F4000312CC20CD31CC901492F582F1A012D81E5
:101F5000222329F088EE93E0821993091C0199EC61
:101F6000291631042CF4A3E32A16310494F002C09C
:101F700055245394B101882777FD8095982FA801A7
:101F800097010E945611860E971EA81EB91E620C5C
:101F9000731C88EE93E0A0E0B0E0E80EF91E0A1F83
:101FA0001B1F89819A81AB81BC81E816F9060A075B
:101FB0001B0709F65520F1F45524089441085108EF
:101FC00024EF31E0429EC001439E900D529E900D41
:101FD00011242091C7013091C80128173907B4F0A6
:101FE00088EE93E0489E9001499E300D589E300D3A
:101FF00011240EC0930140E050E0C501B4010E94DD
:102000009A112093C7013093C80102C020E030E04C
:10201000C9012596E2E10C94FF11A7E6B0E0E3E1E7
:10202000F0E10C94E3118C014B016A01A6962FAFED
:10203000A697DA018D919C9111970097E9F4F80128
:10204000808590E0880F991F0E942C12D60111966E
:102050009C938E93009709F4E2C0FC0180E090E02D
:1020600003C0119211920196D80118962C911897DD
:1020700030E082179307ACF3F401808191810097DF
:1020800089F0EE24FF245E010894A11CB11CB1E488
:102090006B2E712C6C0E7D1EA1E24A2E512C4C0E23
:1020A0005D1E23C0D80118968C9190E0880F991F6F
:1020B0000E942C12F40191838083009709F4AFC031
:1020C000FC0180E090E0D80107C01E962D913C9164
:1020D0001F9721933193019618962C91189730E011
:1020E0008217930794F38D01CCCFC801B501A69652
:1020F0004FADA6970E944F0ED80118968C91189755
:10210000E82FF0E0A596FFAFEEAFA5971301F5011C
:10211000A3965FAE4EAEA397930140E050E0A89621
:102120005FAE4EAEA89737C0E114F10461F0A896F7
:10213000AEADBFADA8976D917C91119780819181D3
:102140006817790760F480819181A896AEADBFAD24
:10215000A89711969C938E93E114F10449F0D9014C
:102160006D917C911197808191818617970728F452
:1021700080819181D9018D939C934F5F5F4F2E5F3A
:102180003F4F3296A8968EAD9FADA8970296A8961F
:102190009FAF8EAFA897A596AEADBFADA5974A17D6
:1021A0005B0714F20894E11CF11CBAE0EB16F10491
:1021B00009F09BCF80E090E02CC0F101419151915A
:1021C0001F01BC01660F771FD601ED91FC9111979D
:1021D000E60FF71F208131812417350710F4518352
:1021E0004083A396EEADFFADA39741915191A39685
:1021F000FFAFEEAFA397D401ED91FC911197E60FDD
:10220000F71F208131814217530710F45183408317
:102210000196F801208530E08217930774F2C959BE
:10222000DF4FE2E10C94FF111F93CF93DF93EC019A
:10223000162F862F8150823058F4AE014E5F5F4FCB
:10224000CE01BE0121E00E940D10123019F00CC029
:10225000662351F4BE016C5F7F4FAE014A5F5F4F52
:10226000CE0120E00E940D10DF91CF911F910895C3
:10227000CF93DF93EC018A819B81009711F00E943C
:10228000C7128E819F81009711F00E94C71288812A
:102290009981009711F00E94C7128C819D8100974F
:1022A00011F00E94C712DF91CF910895DB018F9347
:1022B0009F930E94D811BF91AF91A29F800D911D55
:1022C000A39F900DB29F900D11240895991B79E062
:1022D00004C0991F961708F0961B881F7A95C9F7B6
:1022E00080950895AA1BBB1B51E107C0AA1FBB1F05
:1022F000A617B70710F0A61BB70B881F991F5A9592
:10230000A9F780959095BC01CD01089597FB072E04
:1023100016F4009407D077FD09D00E94721107FCD3
:1023200005D03EF4909581959F4F089570956195E5
:102330007F4F0895A1E21A2EAA1BBB1BFD010DC001
:10234000AA1FBB1FEE1FFF1FA217B307E407F50765
:1023500020F0A21BB30BE40BF50B661F771F881F41
:10236000991F1A9469F760957095809590959B01D7
:10237000AC01BD01CF010895052E97FB16F4009422
:1023800007D057FD0DD00E949A1107FC09D07EF4AA
:1023900090958095709561957F4F8F4F9F4F0895D1
:1023A00050954095309521953F4F4F4F5F4F089581
:1023B0000E942012A59F900DB49F900DA49F800DA8
:1023C000911D112408952F923F924F925F926F9228
:1023D0007F928F929F92AF92BF92CF92DF92EF92B5
:1023E000FF920F931F93CF93DF93CDB7DEB7CA1B36
:1023F000DB0B0FB6F894DEBF0FBECDBF09942A8861
:10240000398848885F846E847D848C849B84AA8408
:10241000B984C884DF80EE80FD800C811B81AA8195
:10242000B981CE0FD11D0FB6F894DEBF0FBECDBF60
:10243000ED010895EE0FFF1F0590F491E02D099432
:10244000A29FB001B39FC001A39F01D0B29F700DA6
:10245000811D1124911D08950F931F93CF93DF9336
:102460008230910510F482E090E0E0913202F09128
:10247000330220E030E0C0E0D0E023C04081518151
:1024800048175907A8F04817590761F482819381CA
:10249000209719F09B838A832EC0909333028093F8
:1024A000320229C02115310529F04217530710F0D7
:1024B000A90102C0BE01DF0102811381EF019A016F
:1024C000F8013097D9F62115310509F1281B390B90
:1024D0002430310590F412968D919C9113976115DB
:1024E000710521F0FB019383828304C09093330232
:1024F00080933202FD01329644C0FD01E20FF31FCA
:1025000081939193225031092D933C933AC02091AD
:10251000300230913102232B41F420912D01309172
:102520002E01309331022093300220912B01309103
:102530002C012115310541F42DB73EB740912F01F3
:1025400050913001241B350BE0913002F0913102A3
:10255000E217F307A0F42E1B3F0B2817390778F07A
:10256000AC014E5F5F4F2417350748F04E0F5F1FD9
:1025700050933102409330028193919302C0E0E086
:10258000F0E0CF01DF91CF911F910F910895EF926D
:10259000FF920F931F93CF93DF93009709F48FC09F
:1025A000DC01129713961C921E921297E090320251
:1025B000F0903302E114F10489F42D913C911197CC
:1025C000280F391F809130029091310282179307B2
:1025D00089F5B0933102A093300271C0E70120E089
:1025E00030E001C0EA01CA17DB0738F44A815B8199
:1025F0009E0141155105B1F722C0BC01625071091D
:10260000FB01D383C28300811181AC01400F511FB4
:102610004C175D0761F448815981400F511F4E5F8F
:102620005F4F518340834A815B81538342832115ED
:10263000310529F4B0933302A093320240C0F9016E
:10264000B383A283E90169917991C60FD71FAC17B3
:10265000BD0779F4DC015E914E91460F571F4E5F26
:102660005F4F5183408312968D919C911397938372
:102670008283A0E0B0E002C0D7017C01F701828133
:1026800093810097C9F7C701029620813181820F9B
:10269000931F20913002309131022817390779F4C5
:1026A000109729F4109233021092320204C013964C
:1026B0001C921E921297F0923102E0923002CDB736
:1026C000DEB7E6E00C940B1210E0CCEAD0E004C0D8
:1026D000FE010E941C122296CE3AD107C9F7F89447
:0226E000FFCF2A
:1026E200881301040400D007F4010F009C01B50116
:1026F200CF01EA0107022602470269028E02B502F1
:10270200DE020A0302080E0F10111200003402202A
:1027120000200000010203040506FF6D56005072FE
:10272200657373204200476F21003E3E61333200E1
:08273200536F6C766564210011
:00000001FF
